:020000040800F2
:1000000000000120F5080008990800089F08000872
:10001000A5080008AB080008B108000800000000AF
:10002000000000000000000000000000B708000809
:10003000C308000800000000CF080008DB08000823
:100040003D0900083D0900083D0900083D09000878
:100050003D0900083D0900083D0900083D09000868
:100060003D0900083D0900083D0900083D09000858
:100070003D0900083D0900083D0900083D09000848
:100080003D0900083D0900083D0900083D09000838
:100090003D0900083D0900083D0900083D09000828
:1000A0003D0900083D0900083D0900083D09000818
:1000B0003D0900083D0900083D0900083D09000808
:1000C0003D0900083D0900083D0900083D090008F8
:1000D0003D0900083D0900083D0900083D090008E8
:1000E0003D0900083D0900083D0900080000000026
:1000F0000000000000000000000000000000000000
:1001000000000000000000003D0900083D09000853
:100110003D0900083D0900083D0900083D090008A7
:100120003D0900083D0900083D0900083D09000897
:100130003D0900083D0900083D0900083D09000887
:100140003D0900083D0900083D0900083D09000877
:10015000000000000000000000000000000000009F
:10016000000000000000000000000000000000008F
:10017000000000000000000000000000000000007F
:10018000000000000000000000000000000000006F
:10019000000000000000000000000000000000005F
:1001A000000000000000000000000000000000004F
:1001B000000000000000000000000000000000003F
:1001C000000000000000000000000000000000002F
:1001D000000000000000000000000000000000001F
:0401E0005FF8E0F1F3
:1001E40010B5054C237833B9044B13B10448AFF36D
:1001F40000800123237010BD1400002000000000C3
:10020400901D000808B5034B1BB103490348AFF325
:10021400008008BD0000000018000020901D0008A8
:1002240053B94AB9002908BF00281CBF4FF0FF3159
:100234004FF0FF3000F072B9ADF1080C6DE904CE57
:1002440000F006F8DDF804E0DDE9022304B07047AD
:100254002DE9F047089E0D4604468E46002B4CD1EE
:100264008A42944667D9B2FA82F353B102FA03FC84
:10027400C3F1200201FA03FE20FA02F242EA0E0E52
:100284009C404FEA1C47BEFBF7F11FFA8CF507FBB5
:1002940011EE01FB05F0220C42EA0E4290420AD90B
:1002A4001CEB020201F1FF3E80F01981904240F202
:1002B400168102396244121AB2FBF7F007FB1022CE
:1002C40000FB05F5A4B244EA0244A5420AD91CEB9A
:1002D400040400F1FF3280F00481A54240F2018160
:1002E4006444023840EA01400021641B1EB1DC4032
:1002F4000023C6E90043BDE8F0878B4208D9002EED
:1003040000F0EA800021C6E900050846BDE8F08750
:10031400B3FA83F1002948D1AB4202D3824200F2FE
:10032400F880841A65EB030201209646002EE2D081
:10033400C6E9004EDFE702B9FFDEB2FA82F3002B12
:1003440040F08E80881A0121170C1FFA82FEB0FB40
:10035400F7F507FB1500220C42EA00420EFB05F0FC
:10036400904208D91CEB020205F1FF3802D29042F8
:1003740000F2CC804546121AB2FBF7F007FB1022BC
:100384000EFB00FEA4B244EA0244A64508D91CEBC5
:10039400040400F1FF3202D2A64500F2B4801046F4
:1003A400A4EB0E0440EA0540A0E7C1F120078B400E
:1003B40022FA07FC4CEA030C25FA07FA4FEA1C4917
:1003C400BAFBF9F88D4020FA07F309FB18AA1FFAC3
:1003D4008CFE2B4300FA01F508FB0EF01C0C44EADA
:1003E4000A44A04202FA01F20BD91CEB040408F1FE
:1003F400FF3A80F08680A04240F28380A8F1020890
:100404006444241A98B2B4FBF9F309FB134403FBC4
:100414000EFE40EA0444A64508D91CEB040403F18B
:10042400FF306AD2A64568D9023B644443EA0840D7
:10043400A0FB0293A4EB0E049C42C8469E4654D3F0
:1004440051D0002E67D0B5EB080364EB0E04CB400B
:1004540004FA07F71F43CC40C6E9007400214AE7B9
:1004640002FA03FCC3F12000C1409D4024FA00F0CD
:100474004FEA1C472843B1FBF7F507FB15111FFA98
:100484008CFE020C42EA014205FB0EF1914204FA91
:1004940003F408D91CEB020205F1FF382FD2914274
:1004A4002DD9023D6244521AB2FBF7F107FB112227
:1004B40080B240EA024001FB0EF2824208D91CEBF2
:1004C400000001F1FF3816D2824214D90239604487
:1004D400801A41EA05413AE7314630460BE7714656
:1004E400E9E61046FEE64D45ABD2B9EB020863EBF4
:1004F4000C0E0138A5E74146EAE7034696E7454670
:10050400D1E7D0467DE76444023849E7023D6244BE
:1005140031E708460AE73146EDE600BF704700BF01
:1005240080B500AF00F00AFA00F01CF800F098F86B
:1005340000F06CF84FF40071074800F005FD6420EA
:1005440000F05EFA054B19684FF47A7301220448EF
:1005540001F070FAEEE700BF000C01400400002037
:100564003000002080B594B000AF07F118033822A2
:100574000021184601F0DEFB3B1D00221A605A6080
:100584009A60DA601A610123BB614FF480333B62E5
:1005940004237B620123FB624FF48033FB6102235B
:1005A400BB634FF48033FB634FF4E0133B640223DB
:1005B4007B644FF4C063BB644023FB6407F11803FE
:1005C400184600F0DBFC0346002B01D000F0D0F805
:1005D4000F237B600223BB600023FB604FF4806326
:1005E4003B6100237B613B1D0221184600F0DCFFC8
:1005F4000346002B01D000F0BBF8034B01221A6024
:1006040000BF5037BD4680BD7000424280B500AF88
:10061400114B124A1A60104B4FF496525A600E4B0B
:1006240000229A600C4B0022DA600B4B00221A6104
:10063400094B0C225A61084B00229A61064B002296
:10064400DA61054801F0A6F90346002B01D000F059
:100654008FF800BF80BD00BF300000200044004080
:1006640080B58AB000AF07F1140300221A605A6003
:100674009A60DA603A4B9B69394A43F010039361FC
:10068400374B9B6903F010033B613B69344B9B6917
:10069400334A43F020039361314B9B6903F02003F9
:1006A400FB60FB682E4B9B692D4A43F00403936166
:1006B4002B4B9B6903F00403BB60BB68284B9B690D
:1006C400274A43F008039361254B9B6903F0080311
:1006D4007B607B6800224FF40071224800F01CFC10
:1006E4004FF480737B610223BB6103233B6207F1F8
:1006F400140319461C4800F08BFA4FF400737B6115
:100704000023BB610023FB6107F11403194616485B
:1007140000F07EFA4FF400737B610123BB61002378
:10072400FB6102233B6207F1140319460D4800F0F4
:100734006FFA0E4B5B687B627B6A23F030037B624B
:100744007B6A43F0E0637B627B6A43F030037B6245
:10075400064A7B6A536000BF2837BD4680BD00BF90
:1007640000100240000C0140001401400000014050
:1007740080B400AF72B600BFFEE7000080B485B05D
:1007840000AF154B9B69144A43F001039361124B6C
:100794009B6903F00103BB60BB680F4BDB690E4A26
:1007A40043F08053D3610C4BDB6903F080537B60CF
:1007B4007B680A4B5B68FB60FB6823F0E063FB60CB
:1007C400FB6843F00073FB60044AFB68536000BF9E
:1007D4001437BD4680BC7047001002400000014041
:1007E40080B58AB000AF786007F1140300221A6064
:1007F4005A609A60DA607B681B68224A93423DD152
:10080400214BDB69204A43F40033D3611E4BDB697F
:1008140003F400333B613B691B4B9B691A4A43F069
:1008240020039361184B9B6903F02003FB60FB6872
:1008340020237B610223BB6103233B6207F1140382
:100844001946124800F0E4F940237B610023BB61A0
:100854000023FB6107F1140319460C4800F0D8F992
:100864000B4B5B687B627B6A43F0E0637B627B6A71
:1008740043F008037B62064A7B6A536000BF283753
:10088400BD4680BD004400400010024000140140F9
:100894000000014080B400AFFEE780B400AFFEE783
:1008A40080B400AFFEE780B400AFFEE780B400AFD1
:1008B400FEE780B400AF00BFBD4680BC704780B483
:1008C40000AF00BFBD4680BC704780B400AF00BF1E
:1008D400BD4680BC704780B500AF00F075F800BF1E
:1008E40080BD80B400AF00BFBD4680BC704700002F
:1008F400FFF7F7FF0B480C490C4A002302E0D458D9
:10090400C4500433C4188C42F9D3094A094C002357
:1009140001E013600432A242FBD301F013FAFFF7A3
:10092400FFFD70470000002014000020F01D0008A7
:10093400140000207C000020FEE7000080B500AF1A
:10094400084B1B68074A43F010031360032000F0B0
:100954002BF90F2000F008F8FFF710FF00231846CA
:1009640080BD00BF0020024080B582B000AF786037
:10097400124B1A68124B1B7819464FF47A73B3FB67
:10098400F1F3B2FBF3F3184600F035F90346002BFC
:1009940001D001230EE07B680F2B0AD8002279686E
:1009A4004FF0FF3000F00BF9064A7B681360002318
:1009B40000E0012318460837BD4680BD080000202A
:1009C400100000200C00002080B400AF054B1B7801
:1009D4001A46054B1B681344034A136000BFBD4607
:1009E40080BC7047100000207800002080B400AF65
:1009F400024B1B681846BD4680BC70477800002037
:100A040080B584B000AF7860FFF7F0FFB8607B6812
:100A1400FB60FB68B3F1FF3F05D00A4B1B781A4615
:100A2400FB681344FB6000BFFFF7E0FF0246BB68AE
:100A3400D31AFA689A42F7D800BF00BF1037BD46F0
:100A440080BD00BF1000002080B485B000AF786086
:100A54007B6803F00703FB600C4BDB68BB60BA6880
:100A64004FF6FF031340BB60FB681A02BB681343D5
:100A740043F0BF6343F40033BB60044ABB68D360F4
:100A840000BF1437BD4680BC704700BF00ED00E0D6
:100A940080B400AF044BDB681B0A03F0070318465D
:100AA400BD4680BC704700BF00ED00E080B483B059
:100AB40000AF03463960FB7197F90730002B0ADB5E
:100AC4003B68DAB20C4997F907301201D2B20B44F1
:100AD40083F800230AE03B68DAB20849FB7903F0A3
:100AE4000F03043B1201D2B20B441A7600BF0C3739
:100AF400BD4680BC704700BF00E100E000ED00E0AF
:100B040080B489B000AFF860B9607A60FB6803F024
:100B14000703FB61FB69C3F10703042B28BF04230C
:100B2400BB61FB690433062B02D9FB69033B00E07C
:100B340000237B614FF0FF32BB6902FA03F3DA430F
:100B4400BB681A407B699A404FF0FF317B6901FA18
:100B540003F3D9437B680B40134318462437BD463F
:100B640080BC704780B582B000AF78607B68013B81
:100B7400B3F1807F01D301230FE00A4A7B68013B74
:100B840053600F214FF0FF30FFF790FF054B002219
:100B94009A60044B07221A60002318460837BD46A2
:100BA40080BD00BF10E000E080B582B000AF786087
:100BB4007868FFF749FF00BF0837BD4680BD80B5A0
:100BC40086B000AF0346B9607A60FB7300237B6193
:100BD400FFF75EFF78617A68B9687869FFF790FF7C
:100BE400024697F90F3011461846FFF75FFF00BF22
:100BF4001837BD4680BD80B582B000AF7860786894
:100C0400FFF7B0FF034618460837BD4680BD000015
:100C140080B48BB000AF7860396000237B6200231E
:100C24003B6269E101227B6A02FA03F3FB613B68E0
:100C34001B68FA691340BB61BA69FB699A4240F0C8
:100C440058813B685B689A4A93425ED0984A9342C3
:100C540075D8984A934258D0964A93426FD8964A88
:100C6400934252D0944A934269D8944A93424CD0C6
:100C7400924A934263D8924A934246D0904A93420E
:100C84005DD8122B2AD8122B59D801A252F823F07E
:100C94000F0D0008E90C0008FB0C00083D0D0008CE
:100CA400430D0008430D0008430D0008430D0008E0
:100CB400430D0008430D0008430D0008430D0008D0
:100CC400430D0008430D0008430D0008430D0008C0
:100CD400430D0008F10C0008050D0008794A934201
:100CE40013D02CE03B68DB683B6229E03B68DB689F
:100CF40004333B6224E03B68DB6808333B621FE05B
:100D04003B68DB680C333B621AE03B689B68002B52
:100D140002D104233B6213E03B689B68012B05D19D
:100D240008233B627B68FA691A6109E008233B6285
:100D34007B68FA695A6103E000233B6200E000BF6C
:100D4400BB69FF2B01D87B6801E07B6804337B61BE
:100D5400BB69FF2B02D87B6A9B0002E07B6A083BDD
:100D64009B003B617B691A680F213B6901FA03F31D
:100D7400DB431A40396A3B6901FA03F31A437B697E
:100D84001A603B685B6803F08053002B00F0B1806D
:100D94004D4B9B694C4A43F0010393614A4B9B6959
:100DA40003F00103BB60BB68484A7B6A9B080233BB
:100DB40052F82330FB607B6A03F003039B000F228D
:100DC40002FA03F3DB43FA681340FB607B68404A92
:100DD400934213D07B683F4A93420DD07B683E4ACE
:100DE400934207D07B683D4A934201D1032306E036
:100DF400042304E0022302E0012300E000237A6AD2
:100E040002F0030292009340FA681343FB602F49F7
:100E14007B6A9B080233FA6841F823203B685B68CD
:100E240003F48013002B06D02D4B9A682C49BB6920
:100E340013438B6006E02A4B9A68BB69DB4328495D
:100E440013408B603B685B6803F40013002B06D0EF
:100E5400234BDA682249BB691343CB6006E0204B7D
:100E6400DA68BB69DB431E491340CB603B685B68AF
:100E740003F40033002B06D0194B5A681849BB6998
:100E840013434B6006E0164B5A68BB69DB431449B5
:100E940013404B603B685B6803F48033002B21D024
:100EA4000F4B1A680E49BB6913430B6021E000BF66
:100EB4000000321000003110000022100000211048
:100EC4000000121000001110001002400000014048
:100ED40000080140000C01400010014000140140D2
:100EE400000401400B4B1A68BB69DB4309491340FA
:100EF4000B607B6A01337B623B681A687B6A22FA67
:100F040003F3002B7FF48EAE00BF00BF2C37BD4629
:100F140080BC70470004014080B483B000AF7860A7
:100F24000B467B8013467B707B78002B03D07A883A
:100F34007B681A6103E07B881A047B681A6100BF2E
:100F44000C37BD4680BC704780B485B000AF786074
:100F54000B467B807B68DB68FB607A88FB68134008
:100F64001A04FB68D9437B880B401A437B681A61D7
:100F740000BF1437BD4680BC7047000080B586B002
:100F840000AF78607B68002B01D1012304E37B6808
:100F94001B6803F00103002B00F08780924B5B6811
:100FA40003F00C03042B0CD08F4B5B6803F00C0391
:100FB400082B12D18C4B5B6803F48033B3F5803F6C
:100FC4000BD1894B1B6803F40033002B6CD07B6876
:100FD4009B68002B68D10123DEE27B689B68B3F534
:100FE400803F06D1804B1B687F4A43F480331360F3
:100FF4002EE07B689B68002B0CD17B4B1B687A4AE4
:1010040023F480331360784B1B68774A23F48023DE
:1010140013601DE07B689B68B3F5A02F0CD1724B65
:101024001B68714A43F4802313606F4B1B686E4A3C
:1010340043F4803313600BE06B4B1B686A4A23F460
:1010440080331360684B1B68674A23F48023136062
:101054007B689B68002B13D0FFF7C8FC386108E05D
:10106400FFF7C4FC02463B69D31A642B01D903235E
:1010740092E25D4B1B6803F40033002BF0D014E0C4
:10108400FFF7B4FC386108E0FFF7B0FC02463B69A7
:10109400D31A642B01D903237EE2534B1B6803F458
:1010A4000033002BF0D100E000BF7B681B6803F025
:1010B4000203002B63D04C4B5B6803F00C03002B42
:1010C4000BD0494B5B6803F00C03082B1CD1464B37
:1010D4005B6803F48033002B16D1434B1B6803F089
:1010E4000203002B05D07B685B69012B01D001232F
:1010F40052E23D4B1B6823F0F8027B689B69DB00DE
:10110400394913430B603AE07B685B69002B20D0BC
:10111400364B01221A60FFF769FC386108E0FFF7DB
:1011240065FC02463B69D31A022B01D9032333E23F
:101134002D4B1B6803F00203002BF0D02A4B1B68D5
:1011440023F0F8027B689B69DB00274913430B609B
:1011540015E0264B00221A60FFF748FC386108E0CE
:10116400FFF744FC02463B69D31A022B01D903233F
:1011740012E21D4B1B6803F00203002BF0D17B68C5
:101184001B6803F00803002B3AD07B68DB69002B53
:1011940019D0174B01221A60FFF728FC386108E0C8
:1011A400FFF724FC02463B69D31A022B01D903231F
:1011B400F2E10D4B5B6A03F00203002BF0D0012037
:1011C40000F0CAFB1CE00A4B00221A60FFF70EFC79
:1011D40038610FE0FFF70AFC02463B69D31A022B81
:1011E40008D90323D8E100BF0010024000004242A6
:1011F400800442429B4B5B6A03F00203002BE9D15B
:101204007B681B6803F00403002B00F0A680002316
:10121400FB75944BDB6903F08053002B0DD1914B8C
:10122400DB69904A43F08053D3618E4BDB6903F052
:101234008053BB60BB680123FB758B4B1B6803F4B5
:101244008073002B18D1884B1B68874A43F4807342
:101254001360FFF7CBFB386108E0FFF7C7FB0246DA
:101264003B69D31A642B01D9032395E17E4B1B6898
:1012740003F48073002BF0D07B681B69012B06D12B
:10128400784B1B6A774A43F0010313622DE07B68B5
:101294001B69002B0CD1734B1B6A724A23F00103A8
:1012A4001362704B1B6A6F4A23F0040313621CE041
:1012B4007B681B69052B0CD16A4B1B6A694A43F096
:1012C40004031362674B1B6A664A43F0010313620B
:1012D4000BE0644B1B6A634A23F001031362614B06
:1012E4001B6A604A23F0040313627B681B69002BAA
:1012F40015D0FFF77BFB38610AE0FFF777FB024666
:101304003B69D31A41F28832934201D9032343E162
:10131400544B1B6A03F00203002BEED014E0FFF7DA
:1013240065FB38610AE0FFF761FB02463B69D31AAB
:1013340041F28832934201D903232DE1494B1B6AC0
:1013440003F00203002BEED1FB7D012B05D1454BAD
:10135400DB69444A23F08053D3617B68DB6A002B4A
:1013640000F08C803F4B5B6803F48033B3F5803F1F
:101374000ED13C4B5B6803F00C03082B08D1394BAE
:10138400DB6A03F48033B3F5803F01D1012303E129
:101394007B68DB6A022B4ED1324B1B6803F080530F
:1013A400002B09D02F4BDB6A03F0F0027B685B6BE8
:1013B4009A4201D00123EFE02C4B00221A60FFF780
:1013C40015FB386108E0FFF711FB02463B69D31AAD
:1013D400642B01D90323DFE0224B1B6803F0006375
:1013E400002BF0D11F4BDB6A23F0F0027B685B6BB0
:1013F4001C491343CB621B4BDB6A23F470627B688A
:101404001B6B18491343CB62184B01221A60FFF778
:10141400EDFA386108E0FFF7E9FA02463B69D31AAE
:10142400642B01D90323B7E00E4B1B6803F0006360
:10143400002BF0D022E00B4BDB6A0A4A23F4803302
:10144400D3620A4B00221A60FFF7D0FA38610FE02A
:10145400FFF7CCFA02463B69D31A642B08D903235D
:101464009AE000BF00100240007000406800424251
:101474004B4B1B6803F00063002BE9D17B681B6AAC
:10148400002B00F08880464B5B6803F00C03082BAC
:1014940068D07B681B6A022B4DD1424B00221A6034
:1014A400FFF7A4FA386108E0FFF7A0FA02463B69A7
:1014B400D31A022B01D903236EE0394B1B6803F0C6
:1014C4000073002BF0D17B685B6AB3F5803F0FD1CA
:1014D400334BDA6A7B685B6831491343CB62304B28
:1014E400DB6A23F00F027B68DB682D491343CB6270
:1014F4002B4B5B6823F474127B68596A7B689B6A84
:101504000B43274913434B60264B01221A60FFF714
:101514006DFA386108E0FFF769FA02463B69D31AAD
:10152400022B01D9032337E01D4B1B6803F0007322
:10153400002BF0D02FE01B4B00221A60FFF756FA65
:10154400386108E0FFF752FA02463B69D31A022BCE
:1015540001D9032320E0124B1B6803F00073002B16
:10156400F0D118E07B681B6A012B01D1012313E041
:101574000B4B5B68FB60FB6803F480327B685B6A3F
:101584009A4206D1FB6803F470127B689B6A9A4204
:1015940001D0012300E0002318461837BD4680BD62
:1015A400001002406000424280B584B000AF786011
:1015B40039607B68002B01D10123D0E06A4B1B68A2
:1015C40003F007033A689A4210D9674B1B6823F06B
:1015D400070265493B6813430B60634B1B6803F0C8
:1015E40007033A689A4201D00123B8E07B681B687C
:1015F40003F00203002B20D07B681B6803F0040374
:10160400002B05D0594B5B68584A43F4E0635360A0
:101614007B681B6803F00803002B05D0534B5B6801
:10162400524A43F460535360504B5B6823F0F0021A
:101634007B689B684D4913434B607B681B6803F0D0
:101644000103002B40D07B685B68012B07D1474B1B
:101654001B6803F40033002B15D101237FE07B6862
:101664005B68022B07D1414B1B6803F00073002B0E
:1016740009D1012373E03D4B1B6803F00203002BE7
:1016840001D101236BE0394B5B6823F003027B68D3
:101694005B68364913434B60FFF7A8F9F8600AE02A
:1016A400FFF7A4F90246FB68D31A41F28832934249
:1016B40001D9032353E02D4B5B6803F00C027B68D4
:1016C4005B689B009A42EBD1274B1B6803F007032E
:1016D4003A689A4210D2244B1B6823F0070222492D
:1016E4003B6813430B60204B1B6803F007033A6805
:1016F4009A4201D0012332E07B681B6803F00403A3
:10170400002B08D0194B5B6823F4E0627B68DB682C
:10171400164913434B607B681B6803F00803002BD6
:1017240009D0124B5B6823F460527B681B69DB00B1
:101734000E4913434B6000F021F802460B4B5B68E3
:101744001B0903F00F030A49CB5C22FA03F3094A8D
:101754001360094B1B681846FFF706F90023184667
:101764001037BD4680BD00BF00200240001002407B
:10177400A81D0008080000200C0000202DE9B04F2F
:101784008EB000AF0023FB620023BB6200237B63A7
:1017940000237B6200233B6300233B620023FB6145
:1017A4004E4B5B68FB62FB6A03F00C03042B02D014
:1017B400082B03D089E04A4B3B6389E0FB6A9B0C0E
:1017C40003F00F02474B9B5C7B62FB6A03F480339C
:1017D400002B72D0414BDB6A03F00F02424B9B5C3F
:1017E400BB623E4BDB6A03F48033002B53D03B4B8C
:1017F400DB6A1B0903F00F0301333B62374BDB6ADF
:101804001B0A03F00F030233FB61FB6900229A46B3
:1018140093467B6A00223B617A613B6903FB0BF2CE
:101824007B690AFB03F313443A69AAFB02010B44E4
:1018340019462B4B03FB01F2002300FB03F3134473
:10184400274AA0FB02452B441D463B6A0022BB608D
:10185400FA60BB6A00223B607A60D7E902010B465A
:10186400D7E900AB524602FB03F25B4684460CFB0D
:1018740003F3134402465146A2FB01894B449946A3
:1018840042464B4620462946FEF7CAFC02460B4612
:1018940013467B6307E07B6A114A03FB02F2BB6ACF
:1018A400B2FBF3F37B630F4B5B7B1A467B6A934279
:1018B40008D17B6B5B087B6304E07B6A0B4A02FB09
:1018C40003F37B637B6B3B6302E0094B3B6300BF29
:1018D4003B6B18463837BD46BDE8B08F0010024058
:1018E40040787D01C01D0008D01D000800093D009E
:1018F40000127A0080B400AF024B1B681846BD4644
:1019040080BC70470800002080B500AFFFF7F2FFED
:101914000246054B5B681B0A03F007030349CB5CD3
:1019240022FA03F3184680BD00100240B81D0008D7
:1019340080B500AFFFF7DEFF0246054B5B68DB0AAC
:1019440003F007030349CB5C22FA03F3184680BD76
:1019540000100240B81D000880B485B000AF786064
:101964000A4B1B680A4AA2FB03235B0A7A6802FB40
:1019740003F3FB6000BFFB685A1EFA60002BF9D129
:1019840000BF00BF1437BD4680BC7047080000206C
:10199400D34D621080B582B000AF78607B68002BB5
:1019A40001D1012342E07B6893F84130DBB2002B84
:1019B40006D17B68002283F840207868FEF710FF88
:1019C4007B68242283F841207B681B68DA687B6883
:1019D4001B6822F40052DA60786800F01DF97B6815
:1019E4001B681A697B681B6822F490421A617B6841
:1019F4001B685A697B681B6822F02A025A617B685B
:101A04001B68DA687B681B6842F40052DA607B6802
:101A140000225A647B68202283F841207B682022BC
:101A240083F842207B6800225A6300231846083753
:101A3400BD4680BD80B58AB002AFF860B9603B6036
:101A44001346FB8000237B61FB6893F84130DBB2D3
:101A5400202B6DD1BB68002B02D0FB88002B01D159
:101A6400012366E0FB6800225A64FB68212283F8A4
:101A74004120FEF7BBFF7861FB68FA889A84FB6813
:101A8400FA88DA84FB689B68B3F5805F08D1FB6849
:101A94001B69002B04D10023FB61BB68BB6103E01D
:101AA400BB68FB610023BB612AE03B6800937B6950
:101AB40000228021F86800F040F80346002B01D092
:101AC400032336E0FB69002B0BD1BB691B881A4644
:101AD400FB681B68C2F308025A60BB690233BB612E
:101AE40007E0FB691A78FB681B685A60FB690133DD
:101AF400FB61FB68DB8C9BB2013B9AB2FB68DA8426
:101B0400FB68DB8C9BB2002BCFD13B6800937B69D5
:101B140000224021F86800F010F80346002B01D0A1
:101B2400032306E0FB68202283F84120002300E021
:101B3400022318462037BD4680BD80B590B000AF63
:101B4400F860B9603B601346FB7150E0BB6CB3F1C5
:101B5400FF3F4CD0BB6C002B07D0FEF747FF02467B
:101B64003B68D31ABA6C9A4241D2FB681B680C33A7
:101B7400BB62BB6A53E8003F7B627B6A23F4D07389
:101B8400FB63FB681B680C33FA6B7A633B63396B4A
:101B94007A6B41E80023FB62FB6A002BE5D1FB680A
:101BA4001B6814337B617B6953E8003F3B613B69ED
:101BB40023F00103BB63FB681B681433BA6B3A62FE
:101BC400FB61F9693A6A41E80023BB61BB69002BF8
:101BD400E5D1FB68202283F84120FB68202283F8AA
:101BE4004220FB68002283F8402003230FE0FB68B7
:101BF4001B681A68BB681340BA689A420CBF012379
:101C04000023DBB21A46FB799A429FD00023184680
:101C14004037BD4680BD000080B584B000AF786019
:101C24007B681B681B6923F440517B68DA687B6816
:101C34001B680A431A617B689A687B681B691A43AC
:101C44007B685B691343BB607B681B68DB6823F4B8
:101C5400B05323F00C037A681268B9680B43D3605D
:101C64007B681B685B6923F440717B689A697B68B5
:101C74001B680A435A617B681B682C4A934203D150
:101C8400FFF756FEF86002E0FFF73EFEF860FA68E0
:101C940013469B0013449A001A447B685B689B00BC
:101CA400B2FBF3F3224AA2FB03235B091901FA688E
:101CB40013469B0013449A001A447B685B689B009C
:101CC400B2FBF3F21A4BA3FB02035B09642000FB93
:101CD40003F3D31A1B013233154AA2FB03235B0916
:101CE40003F0F0031944FA6813469B0013449A0066
:101CF4001A447B685B689B00B2FBF3F20C4BA3FBBA
:101D040002035B09642000FB03F3D31A1B01323383
:101D1400074AA2FB03235B0903F00F027B681B68DD
:101D24000A449A6000BF1037BD4680BD00380140A8
:101D34001F85EB5103460244934200D1704703F8D8
:101D4400011BF9E770B500260C4D0D4C641BA41063
:101D5400A64209D100F01AF800260A4D0A4C641B69
:101D6400A410A64205D170BD55F8043B984701362E
:101D7400EEE755F8043B98470136F2E7E81D000802
:101D8400E81D0008E81D0008EC1D0008F8B500BFB8
:101D9400F8BC08BC9E467047F8B500BFF8BC08BC48
:041DA4009E467047A0
:101DA8000000000000000000010203040607080903
:101DB80000000000010203040000040506070809EA
:101DC80000000000000D00000102030405060708DA
:081DD800090A0B0C0D0E0F109F
:081DE00074E4FF7F0100000024
:041DE80009020008E4
:041DEC00E501000805
:101DF00041000000000000200024F400100000005A
:041E000001000000DD
:04000005080008F5F2
:00000001FF
